{
  "_format": "hh-sol-artifact-1",
  "contractName": "TimelockController",
  "sourceName": "@openzeppelin/contracts/governance/TimelockController.sol",
  "abi": [
    {
      "inputs": [
        {
          "internalType": "uint256",
          "name": "minDelay",
          "type": "uint256"
        },
        {
          "internalType": "address[]",
          "name": "proposers",
          "type": "address[]"
        },
        {
          "internalType": "address[]",
          "name": "executors",
          "type": "address[]"
        }
      ],
      "stateMutability": "nonpayable",
      "type": "constructor"
    },
    {
      "anonymous": false,
      "inputs": [
        {
          "indexed": true,
          "internalType": "bytes32",
          "name": "id",
          "type": "bytes32"
        },
        {
          "indexed": true,
          "internalType": "uint256",
          "name": "index",
          "type": "uint256"
        },
        {
          "indexed": false,
          "internalType": "address",
          "name": "target",
          "type": "address"
        },
        {
          "indexed": false,
          "internalType": "uint256",
          "name": "value",
          "type": "uint256"
        },
        {
          "indexed": false,
          "internalType": "bytes",
          "name": "data",
          "type": "bytes"
        }
      ],
      "name": "CallExecuted",
      "type": "event"
    },
    {
      "anonymous": false,
      "inputs": [
        {
          "indexed": true,
          "internalType": "bytes32",
          "name": "id",
          "type": "bytes32"
        },
        {
          "indexed": true,
          "internalType": "uint256",
          "name": "index",
          "type": "uint256"
        },
        {
          "indexed": false,
          "internalType": "address",
          "name": "target",
          "type": "address"
        },
        {
          "indexed": false,
          "internalType": "uint256",
          "name": "value",
          "type": "uint256"
        },
        {
          "indexed": false,
          "internalType": "bytes",
          "name": "data",
          "type": "bytes"
        },
        {
          "indexed": false,
          "internalType": "bytes32",
          "name": "predecessor",
          "type": "bytes32"
        },
        {
          "indexed": false,
          "internalType": "uint256",
          "name": "delay",
          "type": "uint256"
        }
      ],
      "name": "CallScheduled",
      "type": "event"
    },
    {
      "anonymous": false,
      "inputs": [
        {
          "indexed": true,
          "internalType": "bytes32",
          "name": "id",
          "type": "bytes32"
        }
      ],
      "name": "Cancelled",
      "type": "event"
    },
    {
      "anonymous": false,
      "inputs": [
        {
          "indexed": false,
          "internalType": "uint256",
          "name": "oldDuration",
          "type": "uint256"
        },
        {
          "indexed": false,
          "internalType": "uint256",
          "name": "newDuration",
          "type": "uint256"
        }
      ],
      "name": "MinDelayChange",
      "type": "event"
    },
    {
      "anonymous": false,
      "inputs": [
        {
          "indexed": true,
          "internalType": "bytes32",
          "name": "role",
          "type": "bytes32"
        },
        {
          "indexed": true,
          "internalType": "bytes32",
          "name": "previousAdminRole",
          "type": "bytes32"
        },
        {
          "indexed": true,
          "internalType": "bytes32",
          "name": "newAdminRole",
          "type": "bytes32"
        }
      ],
      "name": "RoleAdminChanged",
      "type": "event"
    },
    {
      "anonymous": false,
      "inputs": [
        {
          "indexed": true,
          "internalType": "bytes32",
          "name": "role",
          "type": "bytes32"
        },
        {
          "indexed": true,
          "internalType": "address",
          "name": "account",
          "type": "address"
        },
        {
          "indexed": true,
          "internalType": "address",
          "name": "sender",
          "type": "address"
        }
      ],
      "name": "RoleGranted",
      "type": "event"
    },
    {
      "anonymous": false,
      "inputs": [
        {
          "indexed": true,
          "internalType": "bytes32",
          "name": "role",
          "type": "bytes32"
        },
        {
          "indexed": true,
          "internalType": "address",
          "name": "account",
          "type": "address"
        },
        {
          "indexed": true,
          "internalType": "address",
          "name": "sender",
          "type": "address"
        }
      ],
      "name": "RoleRevoked",
      "type": "event"
    },
    {
      "inputs": [],
      "name": "CANCELLER_ROLE",
      "outputs": [
        {
          "internalType": "bytes32",
          "name": "",
          "type": "bytes32"
        }
      ],
      "stateMutability": "view",
      "type": "function"
    },
    {
      "inputs": [],
      "name": "DEFAULT_ADMIN_ROLE",
      "outputs": [
        {
          "internalType": "bytes32",
          "name": "",
          "type": "bytes32"
        }
      ],
      "stateMutability": "view",
      "type": "function"
    },
    {
      "inputs": [],
      "name": "EXECUTOR_ROLE",
      "outputs": [
        {
          "internalType": "bytes32",
          "name": "",
          "type": "bytes32"
        }
      ],
      "stateMutability": "view",
      "type": "function"
    },
    {
      "inputs": [],
      "name": "PROPOSER_ROLE",
      "outputs": [
        {
          "internalType": "bytes32",
          "name": "",
          "type": "bytes32"
        }
      ],
      "stateMutability": "view",
      "type": "function"
    },
    {
      "inputs": [],
      "name": "TIMELOCK_ADMIN_ROLE",
      "outputs": [
        {
          "internalType": "bytes32",
          "name": "",
          "type": "bytes32"
        }
      ],
      "stateMutability": "view",
      "type": "function"
    },
    {
      "inputs": [
        {
          "internalType": "bytes32",
          "name": "id",
          "type": "bytes32"
        }
      ],
      "name": "cancel",
      "outputs": [],
      "stateMutability": "nonpayable",
      "type": "function"
    },
    {
      "inputs": [
        {
          "internalType": "address",
          "name": "target",
          "type": "address"
        },
        {
          "internalType": "uint256",
          "name": "value",
          "type": "uint256"
        },
        {
          "internalType": "bytes",
          "name": "payload",
          "type": "bytes"
        },
        {
          "internalType": "bytes32",
          "name": "predecessor",
          "type": "bytes32"
        },
        {
          "internalType": "bytes32",
          "name": "salt",
          "type": "bytes32"
        }
      ],
      "name": "execute",
      "outputs": [],
      "stateMutability": "payable",
      "type": "function"
    },
    {
      "inputs": [
        {
          "internalType": "address[]",
          "name": "targets",
          "type": "address[]"
        },
        {
          "internalType": "uint256[]",
          "name": "values",
          "type": "uint256[]"
        },
        {
          "internalType": "bytes[]",
          "name": "payloads",
          "type": "bytes[]"
        },
        {
          "internalType": "bytes32",
          "name": "predecessor",
          "type": "bytes32"
        },
        {
          "internalType": "bytes32",
          "name": "salt",
          "type": "bytes32"
        }
      ],
      "name": "executeBatch",
      "outputs": [],
      "stateMutability": "payable",
      "type": "function"
    },
    {
      "inputs": [],
      "name": "getMinDelay",
      "outputs": [
        {
          "internalType": "uint256",
          "name": "duration",
          "type": "uint256"
        }
      ],
      "stateMutability": "view",
      "type": "function"
    },
    {
      "inputs": [
        {
          "internalType": "bytes32",
          "name": "role",
          "type": "bytes32"
        }
      ],
      "name": "getRoleAdmin",
      "outputs": [
        {
          "internalType": "bytes32",
          "name": "",
          "type": "bytes32"
        }
      ],
      "stateMutability": "view",
      "type": "function"
    },
    {
      "inputs": [
        {
          "internalType": "bytes32",
          "name": "id",
          "type": "bytes32"
        }
      ],
      "name": "getTimestamp",
      "outputs": [
        {
          "internalType": "uint256",
          "name": "timestamp",
          "type": "uint256"
        }
      ],
      "stateMutability": "view",
      "type": "function"
    },
    {
      "inputs": [
        {
          "internalType": "bytes32",
          "name": "role",
          "type": "bytes32"
        },
        {
          "internalType": "address",
          "name": "account",
          "type": "address"
        }
      ],
      "name": "grantRole",
      "outputs": [],
      "stateMutability": "nonpayable",
      "type": "function"
    },
    {
      "inputs": [
        {
          "internalType": "bytes32",
          "name": "role",
          "type": "bytes32"
        },
        {
          "internalType": "address",
          "name": "account",
          "type": "address"
        }
      ],
      "name": "hasRole",
      "outputs": [
        {
          "internalType": "bool",
          "name": "",
          "type": "bool"
        }
      ],
      "stateMutability": "view",
      "type": "function"
    },
    {
      "inputs": [
        {
          "internalType": "address",
          "name": "target",
          "type": "address"
        },
        {
          "internalType": "uint256",
          "name": "value",
          "type": "uint256"
        },
        {
          "internalType": "bytes",
          "name": "data",
          "type": "bytes"
        },
        {
          "internalType": "bytes32",
          "name": "predecessor",
          "type": "bytes32"
        },
        {
          "internalType": "bytes32",
          "name": "salt",
          "type": "bytes32"
        }
      ],
      "name": "hashOperation",
      "outputs": [
        {
          "internalType": "bytes32",
          "name": "hash",
          "type": "bytes32"
        }
      ],
      "stateMutability": "pure",
      "type": "function"
    },
    {
      "inputs": [
        {
          "internalType": "address[]",
          "name": "targets",
          "type": "address[]"
        },
        {
          "internalType": "uint256[]",
          "name": "values",
          "type": "uint256[]"
        },
        {
          "internalType": "bytes[]",
          "name": "payloads",
          "type": "bytes[]"
        },
        {
          "internalType": "bytes32",
          "name": "predecessor",
          "type": "bytes32"
        },
        {
          "internalType": "bytes32",
          "name": "salt",
          "type": "bytes32"
        }
      ],
      "name": "hashOperationBatch",
      "outputs": [
        {
          "internalType": "bytes32",
          "name": "hash",
          "type": "bytes32"
        }
      ],
      "stateMutability": "pure",
      "type": "function"
    },
    {
      "inputs": [
        {
          "internalType": "bytes32",
          "name": "id",
          "type": "bytes32"
        }
      ],
      "name": "isOperation",
      "outputs": [
        {
          "internalType": "bool",
          "name": "registered",
          "type": "bool"
        }
      ],
      "stateMutability": "view",
      "type": "function"
    },
    {
      "inputs": [
        {
          "internalType": "bytes32",
          "name": "id",
          "type": "bytes32"
        }
      ],
      "name": "isOperationDone",
      "outputs": [
        {
          "internalType": "bool",
          "name": "done",
          "type": "bool"
        }
      ],
      "stateMutability": "view",
      "type": "function"
    },
    {
      "inputs": [
        {
          "internalType": "bytes32",
          "name": "id",
          "type": "bytes32"
        }
      ],
      "name": "isOperationPending",
      "outputs": [
        {
          "internalType": "bool",
          "name": "pending",
          "type": "bool"
        }
      ],
      "stateMutability": "view",
      "type": "function"
    },
    {
      "inputs": [
        {
          "internalType": "bytes32",
          "name": "id",
          "type": "bytes32"
        }
      ],
      "name": "isOperationReady",
      "outputs": [
        {
          "internalType": "bool",
          "name": "ready",
          "type": "bool"
        }
      ],
      "stateMutability": "view",
      "type": "function"
    },
    {
      "inputs": [
        {
          "internalType": "address",
          "name": "",
          "type": "address"
        },
        {
          "internalType": "address",
          "name": "",
          "type": "address"
        },
        {
          "internalType": "uint256[]",
          "name": "",
          "type": "uint256[]"
        },
        {
          "internalType": "uint256[]",
          "name": "",
          "type": "uint256[]"
        },
        {
          "internalType": "bytes",
          "name": "",
          "type": "bytes"
        }
      ],
      "name": "onERC1155BatchReceived",
      "outputs": [
        {
          "internalType": "bytes4",
          "name": "",
          "type": "bytes4"
        }
      ],
      "stateMutability": "nonpayable",
      "type": "function"
    },
    {
      "inputs": [
        {
          "internalType": "address",
          "name": "",
          "type": "address"
        },
        {
          "internalType": "address",
          "name": "",
          "type": "address"
        },
        {
          "internalType": "uint256",
          "name": "",
          "type": "uint256"
        },
        {
          "internalType": "uint256",
          "name": "",
          "type": "uint256"
        },
        {
          "internalType": "bytes",
          "name": "",
          "type": "bytes"
        }
      ],
      "name": "onERC1155Received",
      "outputs": [
        {
          "internalType": "bytes4",
          "name": "",
          "type": "bytes4"
        }
      ],
      "stateMutability": "nonpayable",
      "type": "function"
    },
    {
      "inputs": [
        {
          "internalType": "address",
          "name": "",
          "type": "address"
        },
        {
          "internalType": "address",
          "name": "",
          "type": "address"
        },
        {
          "internalType": "uint256",
          "name": "",
          "type": "uint256"
        },
        {
          "internalType": "bytes",
          "name": "",
          "type": "bytes"
        }
      ],
      "name": "onERC721Received",
      "outputs": [
        {
          "internalType": "bytes4",
          "name": "",
          "type": "bytes4"
        }
      ],
      "stateMutability": "nonpayable",
      "type": "function"
    },
    {
      "inputs": [
        {
          "internalType": "bytes32",
          "name": "role",
          "type": "bytes32"
        },
        {
          "internalType": "address",
          "name": "account",
          "type": "address"
        }
      ],
      "name": "renounceRole",
      "outputs": [],
      "stateMutability": "nonpayable",
      "type": "function"
    },
    {
      "inputs": [
        {
          "internalType": "bytes32",
          "name": "role",
          "type": "bytes32"
        },
        {
          "internalType": "address",
          "name": "account",
          "type": "address"
        }
      ],
      "name": "revokeRole",
      "outputs": [],
      "stateMutability": "nonpayable",
      "type": "function"
    },
    {
      "inputs": [
        {
          "internalType": "address",
          "name": "target",
          "type": "address"
        },
        {
          "internalType": "uint256",
          "name": "value",
          "type": "uint256"
        },
        {
          "internalType": "bytes",
          "name": "data",
          "type": "bytes"
        },
        {
          "internalType": "bytes32",
          "name": "predecessor",
          "type": "bytes32"
        },
        {
          "internalType": "bytes32",
          "name": "salt",
          "type": "bytes32"
        },
        {
          "internalType": "uint256",
          "name": "delay",
          "type": "uint256"
        }
      ],
      "name": "schedule",
      "outputs": [],
      "stateMutability": "nonpayable",
      "type": "function"
    },
    {
      "inputs": [
        {
          "internalType": "address[]",
          "name": "targets",
          "type": "address[]"
        },
        {
          "internalType": "uint256[]",
          "name": "values",
          "type": "uint256[]"
        },
        {
          "internalType": "bytes[]",
          "name": "payloads",
          "type": "bytes[]"
        },
        {
          "internalType": "bytes32",
          "name": "predecessor",
          "type": "bytes32"
        },
        {
          "internalType": "bytes32",
          "name": "salt",
          "type": "bytes32"
        },
        {
          "internalType": "uint256",
          "name": "delay",
          "type": "uint256"
        }
      ],
      "name": "scheduleBatch",
      "outputs": [],
      "stateMutability": "nonpayable",
      "type": "function"
    },
    {
      "inputs": [
        {
          "internalType": "bytes4",
          "name": "interfaceId",
          "type": "bytes4"
        }
      ],
      "name": "supportsInterface",
      "outputs": [
        {
          "internalType": "bool",
          "name": "",
          "type": "bool"
        }
      ],
      "stateMutability": "view",
      "type": "function"
    },
    {
      "inputs": [
        {
          "internalType": "uint256",
          "name": "newDelay",
          "type": "uint256"
        }
      ],
      "name": "updateDelay",
      "outputs": [],
      "stateMutability": "nonpayable",
      "type": "function"
    },
    {
      "stateMutability": "payable",
      "type": "receive"
    }
  ],
  "bytecode": "0x60806040523480156200001157600080fd5b5060405162003bf538038062003bf5833981810160405281019062000037919062000626565b620000697f5f58e3a2316349923ce3780f8d587db2d72378aed66a8261c916544fa6846ca5806200034f60201b60201c565b620000bb7fb09aa5aeb3702cfd50b6b62bc4532604938f21248a27a1d5ca736082b6819cc17f5f58e3a2316349923ce3780f8d587db2d72378aed66a8261c916544fa6846ca56200034f60201b60201c565b6200010d7fd8aa0f3194971a2a116679f7c2090f6939c8d4e01a2a8d7e41d55e5351469e637f5f58e3a2316349923ce3780f8d587db2d72378aed66a8261c916544fa6846ca56200034f60201b60201c565b6200015f7ffd643c72710c63c0180259aba6b2d05451e3591a24e58b62239378085726f7837f5f58e3a2316349923ce3780f8d587db2d72378aed66a8261c916544fa6846ca56200034f60201b60201c565b620001a07f5f58e3a2316349923ce3780f8d587db2d72378aed66a8261c916544fa6846ca562000194620003b260201b60201c565b620003ba60201b60201c565b620001d27f5f58e3a2316349923ce3780f8d587db2d72378aed66a8261c916544fa6846ca530620003ba60201b60201c565b60005b825181101562000291576200022e7fb09aa5aeb3702cfd50b6b62bc4532604938f21248a27a1d5ca736082b6819cc18483815181106200021a57620002196200086c565b5b6020026020010151620003ba60201b60201c565b6200027d7ffd643c72710c63c0180259aba6b2d05451e3591a24e58b62239378085726f7838483815181106200026957620002686200086c565b5b6020026020010151620003ba60201b60201c565b806200028990620007ef565b9050620001d5565b5060005b81518110156200030257620002ee7fd8aa0f3194971a2a116679f7c2090f6939c8d4e01a2a8d7e41d55e5351469e63838381518110620002da57620002d96200086c565b5b6020026020010151620003ba60201b60201c565b80620002fa90620007ef565b905062000295565b50826002819055507f11c24f4ead16507c69ac467fbd5e4eed5fb5c699626d2cc6d66421df253886d56000846040516200033e929190620006e2565b60405180910390a150505062000923565b60006200036283620003d060201b60201c565b905081600080858152602001908152602001600020600101819055508181847fbd79b86ffe0ab8e8776151514217cd7cacd52c909f66475c3af44e129f0b00ff60405160405180910390a4505050565b600033905090565b620003cc8282620003ef60201b60201c565b5050565b6000806000838152602001908152602001600020600101549050919050565b620004018282620004e060201b60201c565b620004dc57600160008084815260200190815260200160002060000160008373ffffffffffffffffffffffffffffffffffffffff1673ffffffffffffffffffffffffffffffffffffffff16815260200190815260200160002060006101000a81548160ff02191690831515021790555062000481620003b260201b60201c565b73ffffffffffffffffffffffffffffffffffffffff168173ffffffffffffffffffffffffffffffffffffffff16837f2f8788117e7eff1d82e926ec794901d17c78024a50270940304540a733656f0d60405160405180910390a45b5050565b600080600084815260200190815260200160002060000160008373ffffffffffffffffffffffffffffffffffffffff1673ffffffffffffffffffffffffffffffffffffffff16815260200190815260200160002060009054906101000a900460ff16905092915050565b6000620005616200055b8462000738565b6200070f565b90508083825260208201905082856020860282011115620005875762000586620008cf565b5b60005b85811015620005bb5781620005a08882620005c5565b8452602084019350602083019250506001810190506200058a565b5050509392505050565b600081519050620005d681620008ef565b92915050565b600082601f830112620005f457620005f3620008ca565b5b8151620006068482602086016200054a565b91505092915050565b600081519050620006208162000909565b92915050565b600080600060608486031215620006425762000641620008d9565b5b600062000652868287016200060f565b935050602084015167ffffffffffffffff811115620006765762000675620008d4565b5b6200068486828701620005dc565b925050604084015167ffffffffffffffff811115620006a857620006a7620008d4565b5b620006b686828701620005dc565b9150509250925092565b620006cb81620007a5565b82525050565b620006dc816200079b565b82525050565b6000604082019050620006f96000830185620006c0565b620007086020830184620006d1565b9392505050565b60006200071b6200072e565b9050620007298282620007b9565b919050565b6000604051905090565b600067ffffffffffffffff8211156200075657620007556200089b565b5b602082029050602081019050919050565b600062000774826200077b565b9050919050565b600073ffffffffffffffffffffffffffffffffffffffff82169050919050565b6000819050919050565b6000620007b2826200079b565b9050919050565b620007c482620008de565b810181811067ffffffffffffffff82111715620007e657620007e56200089b565b5b80604052505050565b6000620007fc826200079b565b91507fffffffffffffffffffffffffffffffffffffffffffffffffffffffffffffffff8214156200083257620008316200083d565b5b600182019050919050565b7f4e487b7100000000000000000000000000000000000000000000000000000000600052601160045260246000fd5b7f4e487b7100000000000000000000000000000000000000000000000000000000600052603260045260246000fd5b7f4e487b7100000000000000000000000000000000000000000000000000000000600052604160045260246000fd5b600080fd5b600080fd5b600080fd5b600080fd5b6000601f19601f8301169050919050565b620008fa8162000767565b81146200090657600080fd5b50565b62000914816200079b565b81146200092057600080fd5b50565b6132c280620009336000396000f3fe6080604052600436106101bb5760003560e01c80638065657f116100ec578063bc197c811161008a578063d547741f11610064578063d547741f1461068c578063e38335e5146106b5578063f23a6e61146106d1578063f27a0c921461070e576101c2565b8063bc197c81146105e9578063c4d252f514610626578063d45c44351461064f576101c2565b806391d14854116100c657806391d1485414610519578063a217fddf14610556578063b08e51c014610581578063b1c5f427146105ac576101c2565b80638065657f146104885780638f2a0bb0146104c55780638f61f4f5146104ee576101c2565b8063248a9ca31161015957806331d507501161013357806331d50750146103bc57806336568abe146103f9578063584b153e1461042257806364d623531461045f576101c2565b8063248a9ca3146103195780632ab0f529146103565780632f2ff15d14610393576101c2565b80630d3cf6fc116101955780630d3cf6fc14610258578063134008d31461028357806313bc9f201461029f578063150b7a02146102dc576101c2565b806301d5062a146101c757806301ffc9a7146101f057806307bd02651461022d576101c2565b366101c257005b600080fd5b3480156101d357600080fd5b506101ee60048036038101906101e99190611eb2565b610739565b005b3480156101fc57600080fd5b5061021760048036038101906102129190612199565b6107ce565b60405161022491906127f0565b60405180910390f35b34801561023957600080fd5b50610242610848565b60405161024f919061280b565b60405180910390f35b34801561026457600080fd5b5061026d61086c565b60405161027a919061280b565b60405180910390f35b61029d60048036038101906102989190611e18565b610890565b005b3480156102ab57600080fd5b506102c660048036038101906102c1919061212c565b61094d565b6040516102d391906127f0565b60405180910390f35b3480156102e857600080fd5b5061030360048036038101906102fe9190611cfe565b610973565b6040516103109190612826565b60405180910390f35b34801561032557600080fd5b50610340600480360381019061033b919061212c565b610987565b60405161034d919061280b565b60405180910390f35b34801561036257600080fd5b5061037d6004803603810190610378919061212c565b6109a6565b60405161038a91906127f0565b60405180910390f35b34801561039f57600080fd5b506103ba60048036038101906103b59190612159565b6109bb565b005b3480156103c857600080fd5b506103e360048036038101906103de919061212c565b6109dc565b6040516103f091906127f0565b60405180910390f35b34801561040557600080fd5b50610420600480360381019061041b9190612159565b6109f0565b005b34801561042e57600080fd5b506104496004803603810190610444919061212c565b610a73565b60405161045691906127f0565b60405180910390f35b34801561046b57600080fd5b50610486600480360381019061048191906121c6565b610a88565b005b34801561049457600080fd5b506104af60048036038101906104aa9190611e18565b610b3b565b6040516104bc919061280b565b60405180910390f35b3480156104d157600080fd5b506104ec60048036038101906104e7919061203d565b610b7a565b005b3480156104fa57600080fd5b50610503610d25565b604051610510919061280b565b60405180910390f35b34801561052557600080fd5b50610540600480360381019061053b9190612159565b610d49565b60405161054d91906127f0565b60405180910390f35b34801561056257600080fd5b5061056b610db3565b604051610578919061280b565b60405180910390f35b34801561058d57600080fd5b50610596610dba565b6040516105a3919061280b565b60405180910390f35b3480156105b857600080fd5b506105d360048036038101906105ce9190611f61565b610dde565b6040516105e0919061280b565b60405180910390f35b3480156105f557600080fd5b50610610600480360381019061060b9190611c2f565b610e23565b60405161061d9190612826565b60405180910390f35b34801561063257600080fd5b5061064d6004803603810190610648919061212c565b610e38565b005b34801561065b57600080fd5b506106766004803603810190610671919061212c565b610ef2565b60405161068391906129a3565b60405180910390f35b34801561069857600080fd5b506106b360048036038101906106ae9190612159565b610f0f565b005b6106cf60048036038101906106ca9190611f61565b610f30565b005b3480156106dd57600080fd5b506106f860048036038101906106f39190611d81565b61111a565b6040516107059190612826565b60405180910390f35b34801561071a57600080fd5b5061072361112f565b60405161073091906129a3565b60405180910390f35b7fb09aa5aeb3702cfd50b6b62bc4532604938f21248a27a1d5ca736082b6819cc161076381611139565b6000610773898989898989610b3b565b905061077f818461114d565b6000817f4cf4410cc57040e44862ef0f45f3dd5a5e02db8eb8add648d4b0e236f1d07dca8b8b8b8b8b8a6040516107bb96959493929190612726565b60405180910390a3505050505050505050565b60007f4e2312e0000000000000000000000000000000000000000000000000000000007bffffffffffffffffffffffffffffffffffffffffffffffffffffffff1916827bffffffffffffffffffffffffffffffffffffffffffffffffffffffff19161480610841575061084082611207565b5b9050919050565b7fd8aa0f3194971a2a116679f7c2090f6939c8d4e01a2a8d7e41d55e5351469e6381565b7f5f58e3a2316349923ce3780f8d587db2d72378aed66a8261c916544fa6846ca581565b7fd8aa0f3194971a2a116679f7c2090f6939c8d4e01a2a8d7e41d55e5351469e636108bc816000610d49565b6108d2576108d1816108cc611281565b611289565b5b60006108e2888888888888610b3b565b90506108ee8185611326565b6108fa888888886113c7565b6000817fc2617efa69bab66782fa219543714338489c4e9e178271560a91b82c3f612b588a8a8a8a604051610932949392919061268a565b60405180910390a36109438161147e565b5050505050505050565b60008061095983610ef2565b905060018111801561096b5750428111155b915050919050565b600063150b7a0260e01b9050949350505050565b6000806000838152602001908152602001600020600101549050919050565b600060016109b383610ef2565b149050919050565b6109c482610987565b6109cd81611139565b6109d783836114e1565b505050565b6000806109e883610ef2565b119050919050565b6109f8611281565b73ffffffffffffffffffffffffffffffffffffffff168173ffffffffffffffffffffffffffffffffffffffff1614610a65576040517f08c379a0000000000000000000000000000000000000000000000000000000008152600401610a5c90612963565b60405180910390fd5b610a6f82826115c1565b5050565b60006001610a8083610ef2565b119050919050565b3073ffffffffffffffffffffffffffffffffffffffff163373ffffffffffffffffffffffffffffffffffffffff1614610af6576040517f08c379a0000000000000000000000000000000000000000000000000000000008152600401610aed90612943565b60405180910390fd5b7f11c24f4ead16507c69ac467fbd5e4eed5fb5c699626d2cc6d66421df253886d560025482604051610b299291906129be565b60405180910390a18060028190555050565b6000868686868686604051602001610b58969594939291906126ca565b6040516020818303038152906040528051906020012090509695505050505050565b7fb09aa5aeb3702cfd50b6b62bc4532604938f21248a27a1d5ca736082b6819cc1610ba481611139565b878790508a8a905014610bec576040517f08c379a0000000000000000000000000000000000000000000000000000000008152600401610be3906128a3565b60405180910390fd5b858590508a8a905014610c34576040517f08c379a0000000000000000000000000000000000000000000000000000000008152600401610c2b906128a3565b60405180910390fd5b6000610c468b8b8b8b8b8b8b8b610dde565b9050610c52818461114d565b60005b8b8b9050811015610d175780827f4cf4410cc57040e44862ef0f45f3dd5a5e02db8eb8add648d4b0e236f1d07dca8e8e85818110610c9657610c95612e3e565b5b9050602002016020810190610cab9190611c02565b8d8d86818110610cbe57610cbd612e3e565b5b905060200201358c8c87818110610cd857610cd7612e3e565b5b9050602002810190610cea91906129e7565b8c8b604051610cfe96959493929190612726565b60405180910390a380610d1090612dc6565b9050610c55565b505050505050505050505050565b7fb09aa5aeb3702cfd50b6b62bc4532604938f21248a27a1d5ca736082b6819cc181565b600080600084815260200190815260200160002060000160008373ffffffffffffffffffffffffffffffffffffffff1673ffffffffffffffffffffffffffffffffffffffff16815260200190815260200160002060009054906101000a900460ff16905092915050565b6000801b81565b7ffd643c72710c63c0180259aba6b2d05451e3591a24e58b62239378085726f78381565b60008888888888888888604051602001610dff989796959493929190612782565b60405160208183030381529060405280519060200120905098975050505050505050565b600063bc197c8160e01b905095945050505050565b7ffd643c72710c63c0180259aba6b2d05451e3591a24e58b62239378085726f783610e6281611139565b610e6b82610a73565b610eaa576040517f08c379a0000000000000000000000000000000000000000000000000000000008152600401610ea190612923565b60405180910390fd5b6001600083815260200190815260200160002060009055817fbaa1eb22f2a492ba1a5fea61b8df4d27c6c8b5f3971e63bb58fa14ff72eedb7060405160405180910390a25050565b600060016000838152602001908152602001600020549050919050565b610f1882610987565b610f2181611139565b610f2b83836115c1565b505050565b7fd8aa0f3194971a2a116679f7c2090f6939c8d4e01a2a8d7e41d55e5351469e63610f5c816000610d49565b610f7257610f7181610f6c611281565b611289565b5b868690508989905014610fba576040517f08c379a0000000000000000000000000000000000000000000000000000000008152600401610fb1906128a3565b60405180910390fd5b848490508989905014611002576040517f08c379a0000000000000000000000000000000000000000000000000000000008152600401610ff9906128a3565b60405180910390fd5b60006110148a8a8a8a8a8a8a8a610dde565b90506110208185611326565b60005b8a8a90508110156111045760008b8b8381811061104357611042612e3e565b5b90506020020160208101906110589190611c02565b905060008a8a8481811061106f5761106e612e3e565b5b9050602002013590503660008a8a8681811061108e5761108d612e3e565b5b90506020028101906110a091906129e7565b915091506110b0848484846113c7565b84867fc2617efa69bab66782fa219543714338489c4e9e178271560a91b82c3f612b58868686866040516110e7949392919061268a565b60405180910390a350505050806110fd90612dc6565b9050611023565b5061110e8161147e565b50505050505050505050565b600063f23a6e6160e01b905095945050505050565b6000600254905090565b61114a81611145611281565b611289565b50565b611156826109dc565b15611196576040517f08c379a000000000000000000000000000000000000000000000000000000000815260040161118d906128e3565b60405180910390fd5b61119e61112f565b8110156111e0576040517f08c379a00000000000000000000000000000000000000000000000000000000081526004016111d7906128c3565b60405180910390fd5b80426111ec9190612bfb565b60016000848152602001908152602001600020819055505050565b60007f7965db0b000000000000000000000000000000000000000000000000000000007bffffffffffffffffffffffffffffffffffffffffffffffffffffffff1916827bffffffffffffffffffffffffffffffffffffffffffffffffffffffff1916148061127a5750611279826116a2565b5b9050919050565b600033905090565b6112938282610d49565b611322576112b88173ffffffffffffffffffffffffffffffffffffffff16601461170c565b6112c68360001c602061170c565b6040516020016112d7929190612650565b6040516020818303038152906040526040517f08c379a00000000000000000000000000000000000000000000000000000000081526004016113199190612841565b60405180910390fd5b5050565b61132f8261094d565b61136e576040517f08c379a000000000000000000000000000000000000000000000000000000000815260040161136590612903565b60405180910390fd5b6000801b8114806113845750611383816109a6565b5b6113c3576040517f08c379a00000000000000000000000000000000000000000000000000000000081526004016113ba90612883565b60405180910390fd5b5050565b60008473ffffffffffffffffffffffffffffffffffffffff168484846040516113f1929190612637565b60006040518083038185875af1925050503d806000811461142e576040519150601f19603f3d011682016040523d82523d6000602084013e611433565b606091505b5050905080611477576040517f08c379a000000000000000000000000000000000000000000000000000000000815260040161146e90612983565b60405180910390fd5b5050505050565b6114878161094d565b6114c6576040517f08c379a00000000000000000000000000000000000000000000000000000000081526004016114bd90612903565b60405180910390fd5b60018060008381526020019081526020016000208190555050565b6114eb8282610d49565b6115bd57600160008084815260200190815260200160002060000160008373ffffffffffffffffffffffffffffffffffffffff1673ffffffffffffffffffffffffffffffffffffffff16815260200190815260200160002060006101000a81548160ff021916908315150217905550611562611281565b73ffffffffffffffffffffffffffffffffffffffff168173ffffffffffffffffffffffffffffffffffffffff16837f2f8788117e7eff1d82e926ec794901d17c78024a50270940304540a733656f0d60405160405180910390a45b5050565b6115cb8282610d49565b1561169e57600080600084815260200190815260200160002060000160008373ffffffffffffffffffffffffffffffffffffffff1673ffffffffffffffffffffffffffffffffffffffff16815260200190815260200160002060006101000a81548160ff021916908315150217905550611643611281565b73ffffffffffffffffffffffffffffffffffffffff168173ffffffffffffffffffffffffffffffffffffffff16837ff6391f5c32d9c69d2a47ea670b442974b53935d1edc7fd64eb21e047a839171b60405160405180910390a45b5050565b60007f01ffc9a7000000000000000000000000000000000000000000000000000000007bffffffffffffffffffffffffffffffffffffffffffffffffffffffff1916827bffffffffffffffffffffffffffffffffffffffffffffffffffffffff1916149050919050565b60606000600283600261171f9190612c51565b6117299190612bfb565b67ffffffffffffffff81111561174257611741612e6d565b5b6040519080825280601f01601f1916602001820160405280156117745781602001600182028036833780820191505090505b5090507f3000000000000000000000000000000000000000000000000000000000000000816000815181106117ac576117ab612e3e565b5b60200101907effffffffffffffffffffffffffffffffffffffffffffffffffffffffffffff1916908160001a9053507f7800000000000000000000000000000000000000000000000000000000000000816001815181106118105761180f612e3e565b5b60200101907effffffffffffffffffffffffffffffffffffffffffffffffffffffffffffff1916908160001a905350600060018460026118509190612c51565b61185a9190612bfb565b90505b60018111156118fa577f3031323334353637383961626364656600000000000000000000000000000000600f86166010811061189c5761189b612e3e565b5b1a60f81b8282815181106118b3576118b2612e3e565b5b60200101907effffffffffffffffffffffffffffffffffffffffffffffffffffffffffffff1916908160001a905350600485901c9450806118f390612d6b565b905061185d565b506000841461193e576040517f08c379a000000000000000000000000000000000000000000000000000000000815260040161193590612863565b60405180910390fd5b8091505092915050565b600061195b61195684612a6f565b612a4a565b9050808382526020820190508285602086028201111561197e5761197d612eba565b5b60005b858110156119ae57816119948882611bed565b845260208401935060208301925050600181019050611981565b5050509392505050565b60006119cb6119c684612a9b565b612a4a565b9050828152602081018484840111156119e7576119e6612ec4565b5b6119f2848285612d29565b509392505050565b600081359050611a0981613230565b92915050565b60008083601f840112611a2557611a24612ea6565b5b8235905067ffffffffffffffff811115611a4257611a41612ea1565b5b602083019150836020820283011115611a5e57611a5d612eba565b5b9250929050565b60008083601f840112611a7b57611a7a612ea6565b5b8235905067ffffffffffffffff811115611a9857611a97612ea1565b5b602083019150836020820283011115611ab457611ab3612eba565b5b9250929050565b60008083601f840112611ad157611ad0612ea6565b5b8235905067ffffffffffffffff811115611aee57611aed612ea1565b5b602083019150836020820283011115611b0a57611b09612eba565b5b9250929050565b600082601f830112611b2657611b25612ea6565b5b8135611b36848260208601611948565b91505092915050565b600081359050611b4e81613247565b92915050565b600081359050611b638161325e565b92915050565b60008083601f840112611b7f57611b7e612ea6565b5b8235905067ffffffffffffffff811115611b9c57611b9b612ea1565b5b602083019150836001820283011115611bb857611bb7612eba565b5b9250929050565b600082601f830112611bd457611bd3612ea6565b5b8135611be48482602086016119b8565b91505092915050565b600081359050611bfc81613275565b92915050565b600060208284031215611c1857611c17612ed8565b5b6000611c26848285016119fa565b91505092915050565b600080600080600060a08688031215611c4b57611c4a612ed8565b5b6000611c59888289016119fa565b9550506020611c6a888289016119fa565b945050604086013567ffffffffffffffff811115611c8b57611c8a612ec9565b5b611c9788828901611b11565b935050606086013567ffffffffffffffff811115611cb857611cb7612ec9565b5b611cc488828901611b11565b925050608086013567ffffffffffffffff811115611ce557611ce4612ec9565b5b611cf188828901611bbf565b9150509295509295909350565b60008060008060808587031215611d1857611d17612ed8565b5b6000611d26878288016119fa565b9450506020611d37878288016119fa565b9350506040611d4887828801611bed565b925050606085013567ffffffffffffffff811115611d6957611d68612ec9565b5b611d7587828801611bbf565b91505092959194509250565b600080600080600060a08688031215611d9d57611d9c612ed8565b5b6000611dab888289016119fa565b9550506020611dbc888289016119fa565b9450506040611dcd88828901611bed565b9350506060611dde88828901611bed565b925050608086013567ffffffffffffffff811115611dff57611dfe612ec9565b5b611e0b88828901611bbf565b9150509295509295909350565b60008060008060008060a08789031215611e3557611e34612ed8565b5b6000611e4389828a016119fa565b9650506020611e5489828a01611bed565b955050604087013567ffffffffffffffff811115611e7557611e74612ec9565b5b611e8189828a01611b69565b94509450506060611e9489828a01611b3f565b9250506080611ea589828a01611b3f565b9150509295509295509295565b600080600080600080600060c0888a031215611ed157611ed0612ed8565b5b6000611edf8a828b016119fa565b9750506020611ef08a828b01611bed565b965050604088013567ffffffffffffffff811115611f1157611f10612ec9565b5b611f1d8a828b01611b69565b95509550506060611f308a828b01611b3f565b9350506080611f418a828b01611b3f565b92505060a0611f528a828b01611bed565b91505092959891949750929550565b60008060008060008060008060a0898b031215611f8157611f80612ed8565b5b600089013567ffffffffffffffff811115611f9f57611f9e612ec9565b5b611fab8b828c01611a0f565b9850985050602089013567ffffffffffffffff811115611fce57611fcd612ec9565b5b611fda8b828c01611abb565b9650965050604089013567ffffffffffffffff811115611ffd57611ffc612ec9565b5b6120098b828c01611a65565b9450945050606061201c8b828c01611b3f565b925050608061202d8b828c01611b3f565b9150509295985092959890939650565b600080600080600080600080600060c08a8c03121561205f5761205e612ed8565b5b60008a013567ffffffffffffffff81111561207d5761207c612ec9565b5b6120898c828d01611a0f565b995099505060208a013567ffffffffffffffff8111156120ac576120ab612ec9565b5b6120b88c828d01611abb565b975097505060408a013567ffffffffffffffff8111156120db576120da612ec9565b5b6120e78c828d01611a65565b955095505060606120fa8c828d01611b3f565b935050608061210b8c828d01611b3f565b92505060a061211c8c828d01611bed565b9150509295985092959850929598565b60006020828403121561214257612141612ed8565b5b600061215084828501611b3f565b91505092915050565b600080604083850312156121705761216f612ed8565b5b600061217e85828601611b3f565b925050602061218f858286016119fa565b9150509250929050565b6000602082840312156121af576121ae612ed8565b5b60006121bd84828501611b54565b91505092915050565b6000602082840312156121dc576121db612ed8565b5b60006121ea84828501611bed565b91505092915050565b60006121ff8383612221565b60208301905092915050565b600061221884848461239b565b90509392505050565b61222a81612cab565b82525050565b61223981612cab565b82525050565b600061224b8385612b05565b935061225682612acc565b8060005b8581101561228f5761226c8284612b81565b61227688826121f3565b975061228183612aeb565b92505060018101905061225a565b5085925050509392505050565b60006122a88385612b16565b9350836020840285016122ba84612ad6565b8060005b878110156123005784840389526122d58284612b98565b6122e086828461220b565b95506122eb84612af8565b935060208b019a5050506001810190506122be565b50829750879450505050509392505050565b600061231e8385612b27565b93507f07ffffffffffffffffffffffffffffffffffffffffffffffffffffffffffffff83111561235157612350612ece565b5b602083029250612362838584612d29565b82840190509392505050565b61237781612cbd565b82525050565b61238681612cc9565b82525050565b61239581612cd3565b82525050565b60006123a78385612b38565b93506123b4838584612d29565b6123bd83612edd565b840190509392505050565b60006123d48385612b49565b93506123e1838584612d29565b6123ea83612edd565b840190509392505050565b60006124018385612b5a565b935061240e838584612d29565b82840190509392505050565b600061242582612ae0565b61242f8185612b65565b935061243f818560208601612d38565b61244881612edd565b840191505092915050565b600061245e82612ae0565b6124688185612b76565b9350612478818560208601612d38565b80840191505092915050565b6000612491602083612b65565b915061249c82612eee565b602082019050919050565b60006124b4602683612b65565b91506124bf82612f17565b604082019050919050565b60006124d7602383612b65565b91506124e282612f66565b604082019050919050565b60006124fa602683612b65565b915061250582612fb5565b604082019050919050565b600061251d602f83612b65565b915061252882613004565b604082019050919050565b6000612540602a83612b65565b915061254b82613053565b604082019050919050565b6000612563601783612b76565b915061256e826130a2565b601782019050919050565b6000612586603183612b65565b9150612591826130cb565b604082019050919050565b60006125a9601183612b76565b91506125b48261311a565b601182019050919050565b60006125cc602b83612b65565b91506125d782613143565b604082019050919050565b60006125ef602f83612b65565b91506125fa82613192565b604082019050919050565b6000612612603383612b65565b915061261d826131e1565b604082019050919050565b61263181612d1f565b82525050565b60006126448284866123f5565b91508190509392505050565b600061265b82612556565b91506126678285612453565b91506126728261259c565b915061267e8284612453565b91508190509392505050565b600060608201905061269f6000830187612230565b6126ac6020830186612628565b81810360408301526126bf8184866123c8565b905095945050505050565b600060a0820190506126df6000830189612230565b6126ec6020830188612628565b81810360408301526126ff8186886123c8565b905061270e606083018561237d565b61271b608083018461237d565b979650505050505050565b600060a08201905061273b6000830189612230565b6127486020830188612628565b818103604083015261275b8186886123c8565b905061276a606083018561237d565b6127776080830184612628565b979650505050505050565b600060a082019050818103600083015261279d818a8c61223f565b905081810360208301526127b281888a612312565b905081810360408301526127c781868861229c565b90506127d6606083018561237d565b6127e3608083018461237d565b9998505050505050505050565b6000602082019050612805600083018461236e565b92915050565b6000602082019050612820600083018461237d565b92915050565b600060208201905061283b600083018461238c565b92915050565b6000602082019050818103600083015261285b818461241a565b905092915050565b6000602082019050818103600083015261287c81612484565b9050919050565b6000602082019050818103600083015261289c816124a7565b9050919050565b600060208201905081810360008301526128bc816124ca565b9050919050565b600060208201905081810360008301526128dc816124ed565b9050919050565b600060208201905081810360008301526128fc81612510565b9050919050565b6000602082019050818103600083015261291c81612533565b9050919050565b6000602082019050818103600083015261293c81612579565b9050919050565b6000602082019050818103600083015261295c816125bf565b9050919050565b6000602082019050818103600083015261297c816125e2565b9050919050565b6000602082019050818103600083015261299c81612605565b9050919050565b60006020820190506129b86000830184612628565b92915050565b60006040820190506129d36000830185612628565b6129e06020830184612628565b9392505050565b60008083356001602003843603038112612a0457612a03612eb0565b5b80840192508235915067ffffffffffffffff821115612a2657612a25612eab565b5b602083019250600182023603831315612a4257612a41612ebf565b5b509250929050565b6000612a54612a65565b9050612a608282612d95565b919050565b6000604051905090565b600067ffffffffffffffff821115612a8a57612a89612e6d565b5b602082029050602081019050919050565b600067ffffffffffffffff821115612ab657612ab5612e6d565b5b612abf82612edd565b9050602081019050919050565b6000819050919050565b6000819050919050565b600081519050919050565b6000602082019050919050565b6000602082019050919050565b600082825260208201905092915050565b600082825260208201905092915050565b600082825260208201905092915050565b600082825260208201905092915050565b600082825260208201905092915050565b600081905092915050565b600082825260208201905092915050565b600081905092915050565b6000612b9060208401846119fa565b905092915050565b60008083356001602003843603038112612bb557612bb4612ed3565b5b83810192508235915060208301925067ffffffffffffffff821115612bdd57612bdc612e9c565b5b600182023603841315612bf357612bf2612eb5565b5b509250929050565b6000612c0682612d1f565b9150612c1183612d1f565b9250827fffffffffffffffffffffffffffffffffffffffffffffffffffffffffffffffff03821115612c4657612c45612e0f565b5b828201905092915050565b6000612c5c82612d1f565b9150612c6783612d1f565b9250817fffffffffffffffffffffffffffffffffffffffffffffffffffffffffffffffff0483118215151615612ca057612c9f612e0f565b5b828202905092915050565b6000612cb682612cff565b9050919050565b60008115159050919050565b6000819050919050565b60007fffffffff0000000000000000000000000000000000000000000000000000000082169050919050565b600073ffffffffffffffffffffffffffffffffffffffff82169050919050565b6000819050919050565b82818337600083830152505050565b60005b83811015612d56578082015181840152602081019050612d3b565b83811115612d65576000848401525b50505050565b6000612d7682612d1f565b91506000821415612d8a57612d89612e0f565b5b600182039050919050565b612d9e82612edd565b810181811067ffffffffffffffff82111715612dbd57612dbc612e6d565b5b80604052505050565b6000612dd182612d1f565b91507fffffffffffffffffffffffffffffffffffffffffffffffffffffffffffffffff821415612e0457612e03612e0f565b5b600182019050919050565b7f4e487b7100000000000000000000000000000000000000000000000000000000600052601160045260246000fd5b7f4e487b7100000000000000000000000000000000000000000000000000000000600052603260045260246000fd5b7f4e487b7100000000000000000000000000000000000000000000000000000000600052604160045260246000fd5b600080fd5b600080fd5b600080fd5b600080fd5b600080fd5b600080fd5b600080fd5b600080fd5b600080fd5b600080fd5b600080fd5b600080fd5b600080fd5b6000601f19601f8301169050919050565b7f537472696e67733a20686578206c656e67746820696e73756666696369656e74600082015250565b7f54696d656c6f636b436f6e74726f6c6c65723a206d697373696e67206465706560008201527f6e64656e63790000000000000000000000000000000000000000000000000000602082015250565b7f54696d656c6f636b436f6e74726f6c6c65723a206c656e677468206d69736d6160008201527f7463680000000000000000000000000000000000000000000000000000000000602082015250565b7f54696d656c6f636b436f6e74726f6c6c65723a20696e73756666696369656e7460008201527f2064656c61790000000000000000000000000000000000000000000000000000602082015250565b7f54696d656c6f636b436f6e74726f6c6c65723a206f7065726174696f6e20616c60008201527f7265616479207363686564756c65640000000000000000000000000000000000602082015250565b7f54696d656c6f636b436f6e74726f6c6c65723a206f7065726174696f6e20697360008201527f206e6f7420726561647900000000000000000000000000000000000000000000602082015250565b7f416363657373436f6e74726f6c3a206163636f756e7420000000000000000000600082015250565b7f54696d656c6f636b436f6e74726f6c6c65723a206f7065726174696f6e20636160008201527f6e6e6f742062652063616e63656c6c6564000000000000000000000000000000602082015250565b7f206973206d697373696e6720726f6c6520000000000000000000000000000000600082015250565b7f54696d656c6f636b436f6e74726f6c6c65723a2063616c6c6572206d7573742060008201527f62652074696d656c6f636b000000000000000000000000000000000000000000602082015250565b7f416363657373436f6e74726f6c3a2063616e206f6e6c792072656e6f756e636560008201527f20726f6c657320666f722073656c660000000000000000000000000000000000602082015250565b7f54696d656c6f636b436f6e74726f6c6c65723a20756e6465726c79696e67207460008201527f72616e73616374696f6e20726576657274656400000000000000000000000000602082015250565b61323981612cab565b811461324457600080fd5b50565b61325081612cc9565b811461325b57600080fd5b50565b61326781612cd3565b811461327257600080fd5b50565b61327e81612d1f565b811461328957600080fd5b5056fea2646970667358221220f1004f09390a4f120c6ba8cec4efeb4705b72c7b44e3c35c6aa130190617ba5264736f6c63430008060033",
  "linkReferences": {},
  "deployedLinkReferences": {}
}