{
  "_format": "hh-sol-artifact-1",
  "contractName": "GovernanceToken",
  "sourceName": "contracts/GovernanceToken.sol",
  "abi": [
    {
      "inputs": [],
      "stateMutability": "nonpayable",
      "type": "constructor"
    },
    {
      "anonymous": false,
      "inputs": [
        {
          "indexed": true,
          "internalType": "address",
          "name": "owner",
          "type": "address"
        },
        {
          "indexed": true,
          "internalType": "address",
          "name": "spender",
          "type": "address"
        },
        {
          "indexed": false,
          "internalType": "uint256",
          "name": "value",
          "type": "uint256"
        }
      ],
      "name": "Approval",
      "type": "event"
    },
    {
      "anonymous": false,
      "inputs": [
        {
          "indexed": true,
          "internalType": "address",
          "name": "delegator",
          "type": "address"
        },
        {
          "indexed": true,
          "internalType": "address",
          "name": "fromDelegate",
          "type": "address"
        },
        {
          "indexed": true,
          "internalType": "address",
          "name": "toDelegate",
          "type": "address"
        }
      ],
      "name": "DelegateChanged",
      "type": "event"
    },
    {
      "anonymous": false,
      "inputs": [
        {
          "indexed": true,
          "internalType": "address",
          "name": "delegate",
          "type": "address"
        },
        {
          "indexed": false,
          "internalType": "uint256",
          "name": "previousBalance",
          "type": "uint256"
        },
        {
          "indexed": false,
          "internalType": "uint256",
          "name": "newBalance",
          "type": "uint256"
        }
      ],
      "name": "DelegateVotesChanged",
      "type": "event"
    },
    {
      "anonymous": false,
      "inputs": [
        {
          "indexed": true,
          "internalType": "address",
          "name": "from",
          "type": "address"
        },
        {
          "indexed": true,
          "internalType": "address",
          "name": "to",
          "type": "address"
        },
        {
          "indexed": false,
          "internalType": "uint256",
          "name": "value",
          "type": "uint256"
        }
      ],
      "name": "Transfer",
      "type": "event"
    },
    {
      "inputs": [],
      "name": "DOMAIN_SEPARATOR",
      "outputs": [
        {
          "internalType": "bytes32",
          "name": "",
          "type": "bytes32"
        }
      ],
      "stateMutability": "view",
      "type": "function"
    },
    {
      "inputs": [
        {
          "internalType": "address",
          "name": "owner",
          "type": "address"
        },
        {
          "internalType": "address",
          "name": "spender",
          "type": "address"
        }
      ],
      "name": "allowance",
      "outputs": [
        {
          "internalType": "uint256",
          "name": "",
          "type": "uint256"
        }
      ],
      "stateMutability": "view",
      "type": "function"
    },
    {
      "inputs": [
        {
          "internalType": "address",
          "name": "spender",
          "type": "address"
        },
        {
          "internalType": "uint256",
          "name": "amount",
          "type": "uint256"
        }
      ],
      "name": "approve",
      "outputs": [
        {
          "internalType": "bool",
          "name": "",
          "type": "bool"
        }
      ],
      "stateMutability": "nonpayable",
      "type": "function"
    },
    {
      "inputs": [
        {
          "internalType": "address",
          "name": "account",
          "type": "address"
        }
      ],
      "name": "balanceOf",
      "outputs": [
        {
          "internalType": "uint256",
          "name": "",
          "type": "uint256"
        }
      ],
      "stateMutability": "view",
      "type": "function"
    },
    {
      "inputs": [
        {
          "internalType": "address",
          "name": "account",
          "type": "address"
        },
        {
          "internalType": "uint32",
          "name": "pos",
          "type": "uint32"
        }
      ],
      "name": "checkpoints",
      "outputs": [
        {
          "components": [
            {
              "internalType": "uint32",
              "name": "fromBlock",
              "type": "uint32"
            },
            {
              "internalType": "uint224",
              "name": "votes",
              "type": "uint224"
            }
          ],
          "internalType": "struct ERC20Votes.Checkpoint",
          "name": "",
          "type": "tuple"
        }
      ],
      "stateMutability": "view",
      "type": "function"
    },
    {
      "inputs": [],
      "name": "decimals",
      "outputs": [
        {
          "internalType": "uint8",
          "name": "",
          "type": "uint8"
        }
      ],
      "stateMutability": "view",
      "type": "function"
    },
    {
      "inputs": [
        {
          "internalType": "address",
          "name": "spender",
          "type": "address"
        },
        {
          "internalType": "uint256",
          "name": "subtractedValue",
          "type": "uint256"
        }
      ],
      "name": "decreaseAllowance",
      "outputs": [
        {
          "internalType": "bool",
          "name": "",
          "type": "bool"
        }
      ],
      "stateMutability": "nonpayable",
      "type": "function"
    },
    {
      "inputs": [
        {
          "internalType": "address",
          "name": "delegatee",
          "type": "address"
        }
      ],
      "name": "delegate",
      "outputs": [],
      "stateMutability": "nonpayable",
      "type": "function"
    },
    {
      "inputs": [
        {
          "internalType": "address",
          "name": "delegatee",
          "type": "address"
        },
        {
          "internalType": "uint256",
          "name": "nonce",
          "type": "uint256"
        },
        {
          "internalType": "uint256",
          "name": "expiry",
          "type": "uint256"
        },
        {
          "internalType": "uint8",
          "name": "v",
          "type": "uint8"
        },
        {
          "internalType": "bytes32",
          "name": "r",
          "type": "bytes32"
        },
        {
          "internalType": "bytes32",
          "name": "s",
          "type": "bytes32"
        }
      ],
      "name": "delegateBySig",
      "outputs": [],
      "stateMutability": "nonpayable",
      "type": "function"
    },
    {
      "inputs": [
        {
          "internalType": "address",
          "name": "account",
          "type": "address"
        }
      ],
      "name": "delegates",
      "outputs": [
        {
          "internalType": "address",
          "name": "",
          "type": "address"
        }
      ],
      "stateMutability": "view",
      "type": "function"
    },
    {
      "inputs": [
        {
          "internalType": "uint256",
          "name": "blockNumber",
          "type": "uint256"
        }
      ],
      "name": "getPastTotalSupply",
      "outputs": [
        {
          "internalType": "uint256",
          "name": "",
          "type": "uint256"
        }
      ],
      "stateMutability": "view",
      "type": "function"
    },
    {
      "inputs": [
        {
          "internalType": "address",
          "name": "account",
          "type": "address"
        },
        {
          "internalType": "uint256",
          "name": "blockNumber",
          "type": "uint256"
        }
      ],
      "name": "getPastVotes",
      "outputs": [
        {
          "internalType": "uint256",
          "name": "",
          "type": "uint256"
        }
      ],
      "stateMutability": "view",
      "type": "function"
    },
    {
      "inputs": [
        {
          "internalType": "address",
          "name": "account",
          "type": "address"
        }
      ],
      "name": "getVotes",
      "outputs": [
        {
          "internalType": "uint256",
          "name": "",
          "type": "uint256"
        }
      ],
      "stateMutability": "view",
      "type": "function"
    },
    {
      "inputs": [
        {
          "internalType": "address",
          "name": "spender",
          "type": "address"
        },
        {
          "internalType": "uint256",
          "name": "addedValue",
          "type": "uint256"
        }
      ],
      "name": "increaseAllowance",
      "outputs": [
        {
          "internalType": "bool",
          "name": "",
          "type": "bool"
        }
      ],
      "stateMutability": "nonpayable",
      "type": "function"
    },
    {
      "inputs": [],
      "name": "name",
      "outputs": [
        {
          "internalType": "string",
          "name": "",
          "type": "string"
        }
      ],
      "stateMutability": "view",
      "type": "function"
    },
    {
      "inputs": [
        {
          "internalType": "address",
          "name": "owner",
          "type": "address"
        }
      ],
      "name": "nonces",
      "outputs": [
        {
          "internalType": "uint256",
          "name": "",
          "type": "uint256"
        }
      ],
      "stateMutability": "view",
      "type": "function"
    },
    {
      "inputs": [
        {
          "internalType": "address",
          "name": "account",
          "type": "address"
        }
      ],
      "name": "numCheckpoints",
      "outputs": [
        {
          "internalType": "uint32",
          "name": "",
          "type": "uint32"
        }
      ],
      "stateMutability": "view",
      "type": "function"
    },
    {
      "inputs": [
        {
          "internalType": "address",
          "name": "owner",
          "type": "address"
        },
        {
          "internalType": "address",
          "name": "spender",
          "type": "address"
        },
        {
          "internalType": "uint256",
          "name": "value",
          "type": "uint256"
        },
        {
          "internalType": "uint256",
          "name": "deadline",
          "type": "uint256"
        },
        {
          "internalType": "uint8",
          "name": "v",
          "type": "uint8"
        },
        {
          "internalType": "bytes32",
          "name": "r",
          "type": "bytes32"
        },
        {
          "internalType": "bytes32",
          "name": "s",
          "type": "bytes32"
        }
      ],
      "name": "permit",
      "outputs": [],
      "stateMutability": "nonpayable",
      "type": "function"
    },
    {
      "inputs": [],
      "name": "s_maxSupply",
      "outputs": [
        {
          "internalType": "uint256",
          "name": "",
          "type": "uint256"
        }
      ],
      "stateMutability": "view",
      "type": "function"
    },
    {
      "inputs": [],
      "name": "symbol",
      "outputs": [
        {
          "internalType": "string",
          "name": "",
          "type": "string"
        }
      ],
      "stateMutability": "view",
      "type": "function"
    },
    {
      "inputs": [],
      "name": "totalSupply",
      "outputs": [
        {
          "internalType": "uint256",
          "name": "",
          "type": "uint256"
        }
      ],
      "stateMutability": "view",
      "type": "function"
    },
    {
      "inputs": [
        {
          "internalType": "address",
          "name": "to",
          "type": "address"
        },
        {
          "internalType": "uint256",
          "name": "amount",
          "type": "uint256"
        }
      ],
      "name": "transfer",
      "outputs": [
        {
          "internalType": "bool",
          "name": "",
          "type": "bool"
        }
      ],
      "stateMutability": "nonpayable",
      "type": "function"
    },
    {
      "inputs": [
        {
          "internalType": "address",
          "name": "from",
          "type": "address"
        },
        {
          "internalType": "address",
          "name": "to",
          "type": "address"
        },
        {
          "internalType": "uint256",
          "name": "amount",
          "type": "uint256"
        }
      ],
      "name": "transferFrom",
      "outputs": [
        {
          "internalType": "bool",
          "name": "",
          "type": "bool"
        }
      ],
      "stateMutability": "nonpayable",
      "type": "function"
    }
  ],
  "bytecode": "0x61014060405269d3c21bcecceda1000000600a553480156200002057600080fd5b506040518060400160405280600d81526020017f476f7665726e6f72546f6b656e00000000000000000000000000000000000000815250806040518060400160405280600181526020017f31000000000000000000000000000000000000000000000000000000000000008152506040518060400160405280600f81526020017f476f7665726e616e6365546f6b656e00000000000000000000000000000000008152506040518060400160405280600281526020017f475400000000000000000000000000000000000000000000000000000000000081525081600390805190602001906200011292919062000b62565b5080600490805190602001906200012b92919062000b62565b50505060008280519060200120905060008280519060200120905060007f8b73c3c69bb8fe3d512ecc4cf759cc79239f7b179b0ffacaa9a75d522b39400f90508260e081815250508161010081815250504660a0818152505062000197818484620001fe60201b60201c565b608081815250503073ffffffffffffffffffffffffffffffffffffffff1660c08173ffffffffffffffffffffffffffffffffffffffff1660601b81525050806101208181525050505050505050620001f833600a546200023a60201b60201c565b620010da565b600083838346306040516020016200021b95949392919062000ce1565b6040516020818303038152906040528051906020012090509392505050565b6200025182826200025560201b62000eaa1760201c565b5050565b6200026c82826200031360201b62000f371760201c565b6200027c6200048c60201b60201c565b7bffffffffffffffffffffffffffffffffffffffffffffffffffffffff16620002aa620004b060201b60201c565b1115620002ee576040517f08c379a0000000000000000000000000000000000000000000000000000000008152600401620002e59062000d3e565b60405180910390fd5b6200030d6009620004ba60201b620010971783620004d260201b60201c565b50505050565b600073ffffffffffffffffffffffffffffffffffffffff168273ffffffffffffffffffffffffffffffffffffffff16141562000386576040517f08c379a00000000000000000000000000000000000000000000000000000000081526004016200037d9062000da4565b60405180910390fd5b6200039a600083836200078360201b60201c565b8060026000828254620003ae919062000e21565b92505081905550806000808473ffffffffffffffffffffffffffffffffffffffff1673ffffffffffffffffffffffffffffffffffffffff168152602001908152602001600020600082825462000405919062000e21565b925050819055508173ffffffffffffffffffffffffffffffffffffffff16600073ffffffffffffffffffffffffffffffffffffffff167fddf252ad1be2c89b69c2b068fc378daa952ba7f163c4a11628f55a4df523b3ef836040516200046c919062000dc6565b60405180910390a362000488600083836200078860201b60201c565b5050565b60007bffffffffffffffffffffffffffffffffffffffffffffffffffffffff905090565b6000600254905090565b60008183620004ca919062000e21565b905092915050565b60008060008580549050905060008114620005475785600182620004f7919062000e7e565b815481106200050b576200050a62000f95565b5b9060005260206000200160000160049054906101000a90047bffffffffffffffffffffffffffffffffffffffffffffffffffffffff166200054a565b60005b7bffffffffffffffffffffffffffffffffffffffffffffffffffffffff1692506200057683858760201c565b9150600081118015620005cf5750438660018362000595919062000e7e565b81548110620005a957620005a862000f95565b5b9060005260206000200160000160009054906101000a900463ffffffff1663ffffffff16145b156200067057620005eb82620007a560201b620010ad1760201c565b86600183620005fb919062000e7e565b815481106200060f576200060e62000f95565b5b9060005260206000200160000160046101000a8154817bffffffffffffffffffffffffffffffffffffffffffffffffffffffff02191690837bffffffffffffffffffffffffffffffffffffffffffffffffffffffff1602179055506200077a565b85604051806040016040528062000692436200081360201b620011181760201c565b63ffffffff168152602001620006b385620007a560201b620010ad1760201c565b7bffffffffffffffffffffffffffffffffffffffffffffffffffffffff168152509080600181540180825580915050600190039060005260206000200160009091909190915060008201518160000160006101000a81548163ffffffff021916908363ffffffff16021790555060208201518160000160046101000a8154817bffffffffffffffffffffffffffffffffffffffffffffffffffffffff02191690837bffffffffffffffffffffffffffffffffffffffffffffffffffffffff16021790555050505b50935093915050565b505050565b620007a08383836200086960201b6200116b1760201c565b505050565b60007bffffffffffffffffffffffffffffffffffffffffffffffffffffffff80168211156200080b576040517f08c379a0000000000000000000000000000000000000000000000000000000008152600401620008029062000d60565b60405180910390fd5b819050919050565b600063ffffffff801682111562000861576040517f08c379a0000000000000000000000000000000000000000000000000000000008152600401620008589062000d82565b60405180910390fd5b819050919050565b62000881838383620008b960201b620011961760201c565b620008b46200089684620008be60201b60201c565b620008a784620008be60201b60201c565b836200092760201b60201c565b505050565b505050565b6000600760008373ffffffffffffffffffffffffffffffffffffffff1673ffffffffffffffffffffffffffffffffffffffff16815260200190815260200160002060009054906101000a900473ffffffffffffffffffffffffffffffffffffffff169050919050565b8173ffffffffffffffffffffffffffffffffffffffff168373ffffffffffffffffffffffffffffffffffffffff1614158015620009645750600081115b1562000b4557600073ffffffffffffffffffffffffffffffffffffffff168373ffffffffffffffffffffffffffffffffffffffff161462000a5757600080620009fe600860008773ffffffffffffffffffffffffffffffffffffffff1673ffffffffffffffffffffffffffffffffffffffff16815260200190815260200160002062000b4a60201b6200119b1785620004d260201b60201c565b915091508473ffffffffffffffffffffffffffffffffffffffff167fdec2bacdd2f05b59de34da9b523dff8be42e5e38e818c82fdb0bae774387a724838360405162000a4c92919062000de3565b60405180910390a250505b600073ffffffffffffffffffffffffffffffffffffffff168273ffffffffffffffffffffffffffffffffffffffff161462000b445760008062000aeb600860008673ffffffffffffffffffffffffffffffffffffffff1673ffffffffffffffffffffffffffffffffffffffff168152602001908152602001600020620004ba60201b620010971785620004d260201b60201c565b915091508373ffffffffffffffffffffffffffffffffffffffff167fdec2bacdd2f05b59de34da9b523dff8be42e5e38e818c82fdb0bae774387a724838360405162000b3992919062000de3565b60405180910390a250505b5b505050565b6000818362000b5a919062000e7e565b905092915050565b82805462000b709062000f01565b90600052602060002090601f01602090048101928262000b94576000855562000be0565b82601f1062000baf57805160ff191683800117855562000be0565b8280016001018555821562000be0579182015b8281111562000bdf57825182559160200191906001019062000bc2565b5b50905062000bef919062000bf3565b5090565b5b8082111562000c0e57600081600090555060010162000bf4565b5090565b62000c1d8162000eb9565b82525050565b62000c2e8162000ecd565b82525050565b600062000c4360308362000e10565b915062000c508262000fc4565b604082019050919050565b600062000c6a60278362000e10565b915062000c778262001013565b604082019050919050565b600062000c9160268362000e10565b915062000c9e8262001062565b604082019050919050565b600062000cb8601f8362000e10565b915062000cc582620010b1565b602082019050919050565b62000cdb8162000ef7565b82525050565b600060a08201905062000cf8600083018862000c23565b62000d07602083018762000c23565b62000d16604083018662000c23565b62000d25606083018562000cd0565b62000d34608083018462000c12565b9695505050505050565b6000602082019050818103600083015262000d598162000c34565b9050919050565b6000602082019050818103600083015262000d7b8162000c5b565b9050919050565b6000602082019050818103600083015262000d9d8162000c82565b9050919050565b6000602082019050818103600083015262000dbf8162000ca9565b9050919050565b600060208201905062000ddd600083018462000cd0565b92915050565b600060408201905062000dfa600083018562000cd0565b62000e09602083018462000cd0565b9392505050565b600082825260208201905092915050565b600062000e2e8262000ef7565b915062000e3b8362000ef7565b9250827fffffffffffffffffffffffffffffffffffffffffffffffffffffffffffffffff0382111562000e735762000e7262000f37565b5b828201905092915050565b600062000e8b8262000ef7565b915062000e988362000ef7565b92508282101562000eae5762000ead62000f37565b5b828203905092915050565b600062000ec68262000ed7565b9050919050565b6000819050919050565b600073ffffffffffffffffffffffffffffffffffffffff82169050919050565b6000819050919050565b6000600282049050600182168062000f1a57607f821691505b6020821081141562000f315762000f3062000f66565b5b50919050565b7f4e487b7100000000000000000000000000000000000000000000000000000000600052601160045260246000fd5b7f4e487b7100000000000000000000000000000000000000000000000000000000600052602260045260246000fd5b7f4e487b7100000000000000000000000000000000000000000000000000000000600052603260045260246000fd5b7f4552433230566f7465733a20746f74616c20737570706c79207269736b73206f60008201527f766572666c6f77696e6720766f74657300000000000000000000000000000000602082015250565b7f53616665436173743a2076616c756520646f65736e27742066697420696e203260008201527f3234206269747300000000000000000000000000000000000000000000000000602082015250565b7f53616665436173743a2076616c756520646f65736e27742066697420696e203360008201527f3220626974730000000000000000000000000000000000000000000000000000602082015250565b7f45524332303a206d696e7420746f20746865207a65726f206164647265737300600082015250565b60805160a05160c05160601c60e051610100516101205161375e6200112d600039600061173f015260006117810152600061176001526000611695015260006116eb01526000611714015261375e6000f3fe608060405234801561001057600080fd5b506004361061014d5760003560e01c80636fcfff45116100c3578063a457c2d71161007c578063a457c2d714610402578063a9059cbb14610432578063c3cda52014610462578063d505accf1461047e578063dd62ed3e1461049a578063f1127ed8146104ca5761014d565b80636fcfff45146102f457806370a08231146103245780637ecebe00146103545780638e539e8c1461038457806395d89b41146103b45780639ab24eb0146103d25761014d565b80633644e515116101155780633644e5151461020c578063395093511461022a5780633a46b1a81461025a578063587cde1e1461028a5780635c19a95c146102ba5780635d641847146102d65761014d565b806306fdde0314610152578063095ea7b31461017057806318160ddd146101a057806323b872dd146101be578063313ce567146101ee575b600080fd5b61015a6104fa565b6040516101679190612b96565b60405180910390f35b61018a600480360381019061018591906124c0565b61058c565b6040516101979190612a22565b60405180910390f35b6101a86105af565b6040516101b59190612e53565b60405180910390f35b6101d860048036038101906101d391906123cb565b6105b9565b6040516101e59190612a22565b60405180910390f35b6101f66105e8565b6040516102039190612eb2565b60405180910390f35b6102146105f1565b6040516102219190612a3d565b60405180910390f35b610244600480360381019061023f91906124c0565b610600565b6040516102519190612a22565b60405180910390f35b610274600480360381019061026f91906124c0565b610637565b6040516102819190612e53565b60405180910390f35b6102a4600480360381019061029f919061235e565b6106cb565b6040516102b19190612a07565b60405180910390f35b6102d460048036038101906102cf919061235e565b610734565b005b6102de610748565b6040516102eb9190612e53565b60405180910390f35b61030e6004803603810190610309919061235e565b61074e565b60405161031b9190612e97565b60405180910390f35b61033e6004803603810190610339919061235e565b6107a2565b60405161034b9190612e53565b60405180910390f35b61036e6004803603810190610369919061235e565b6107ea565b60405161037b9190612e53565b60405180910390f35b61039e600480360381019061039991906125cd565b61083a565b6040516103ab9190612e53565b60405180910390f35b6103bc610890565b6040516103c99190612b96565b60405180910390f35b6103ec60048036038101906103e7919061235e565b610922565b6040516103f99190612e53565b60405180910390f35b61041c600480360381019061041791906124c0565b610a33565b6040516104299190612a22565b60405180910390f35b61044c600480360381019061044791906124c0565b610aaa565b6040516104599190612a22565b60405180910390f35b61047c60048036038101906104779190612500565b610acd565b005b6104986004803603810190610493919061241e565b610bd1565b005b6104b460048036038101906104af919061238b565b610d13565b6040516104c19190612e53565b60405180910390f35b6104e460048036038101906104df919061258d565b610d9a565b6040516104f19190612e38565b60405180910390f35b60606003805461050990613079565b80601f016020809104026020016040519081016040528092919081815260200182805461053590613079565b80156105825780601f1061055757610100808354040283529160200191610582565b820191906000526020600020905b81548152906001019060200180831161056557829003601f168201915b5050505050905090565b6000806105976111b1565b90506105a48185856111b9565b600191505092915050565b6000600254905090565b6000806105c46111b1565b90506105d1858285611384565b6105dc858585611410565b60019150509392505050565b60006012905090565b60006105fb611691565b905090565b60008061060b6111b1565b905061062c81858561061d8589610d13565b6106279190612ef4565b6111b9565b600191505092915050565b600043821061067b576040517f08c379a000000000000000000000000000000000000000000000000000000000815260040161067290612bf8565b60405180910390fd5b6106c3600860008573ffffffffffffffffffffffffffffffffffffffff1673ffffffffffffffffffffffffffffffffffffffff168152602001908152602001600020836117ab565b905092915050565b6000600760008373ffffffffffffffffffffffffffffffffffffffff1673ffffffffffffffffffffffffffffffffffffffff16815260200190815260200160002060009054906101000a900473ffffffffffffffffffffffffffffffffffffffff169050919050565b61074561073f6111b1565b826118b7565b50565b600a5481565b600061079b600860008473ffffffffffffffffffffffffffffffffffffffff1673ffffffffffffffffffffffffffffffffffffffff16815260200190815260200160002080549050611118565b9050919050565b60008060008373ffffffffffffffffffffffffffffffffffffffff1673ffffffffffffffffffffffffffffffffffffffff168152602001908152602001600020549050919050565b6000610833600560008473ffffffffffffffffffffffffffffffffffffffff1673ffffffffffffffffffffffffffffffffffffffff1681526020019081526020016000206119d1565b9050919050565b600043821061087e576040517f08c379a000000000000000000000000000000000000000000000000000000000815260040161087590612bf8565b60405180910390fd5b6108896009836117ab565b9050919050565b60606004805461089f90613079565b80601f01602080910402602001604051908101604052809291908181526020018280546108cb90613079565b80156109185780601f106108ed57610100808354040283529160200191610918565b820191906000526020600020905b8154815290600101906020018083116108fb57829003601f168201915b5050505050905090565b600080600860008473ffffffffffffffffffffffffffffffffffffffff1673ffffffffffffffffffffffffffffffffffffffff16815260200190815260200160002080549050905060008114610a0a57600860008473ffffffffffffffffffffffffffffffffffffffff1673ffffffffffffffffffffffffffffffffffffffff1681526020019081526020016000206001826109be9190612f7b565b815481106109cf576109ce613171565b5b9060005260206000200160000160049054906101000a90047bffffffffffffffffffffffffffffffffffffffffffffffffffffffff16610a0d565b60005b7bffffffffffffffffffffffffffffffffffffffffffffffffffffffff16915050919050565b600080610a3e6111b1565b90506000610a4c8286610d13565b905083811015610a91576040517f08c379a0000000000000000000000000000000000000000000000000000000008152600401610a8890612df8565b60405180910390fd5b610a9e82868684036111b9565b60019250505092915050565b600080610ab56111b1565b9050610ac2818585611410565b600191505092915050565b83421115610b10576040517f08c379a0000000000000000000000000000000000000000000000000000000008152600401610b0790612c18565b60405180910390fd5b6000610b72610b6a7fe48329057bfd03d55e49b547132e39cffd9c1820ad7b9d4c5307691425d15adf898989604051602001610b4f9493929190612ab9565b604051602081830303815290604052805190602001206119df565b8585856119f9565b9050610b7d81611a24565b8614610bbe576040517f08c379a0000000000000000000000000000000000000000000000000000000008152600401610bb590612c58565b60405180910390fd5b610bc881886118b7565b50505050505050565b83421115610c14576040517f08c379a0000000000000000000000000000000000000000000000000000000008152600401610c0b90612cb8565b60405180910390fd5b60007f6e71edae12b1b97f4d1f60370fef10105fa2faae0126114a169c64845d6126c9888888610c438c611a24565b89604051602001610c5996959493929190612a58565b6040516020818303038152906040528051906020012090506000610c7c826119df565b90506000610c8c828787876119f9565b90508973ffffffffffffffffffffffffffffffffffffffff168173ffffffffffffffffffffffffffffffffffffffff1614610cfc576040517f08c379a0000000000000000000000000000000000000000000000000000000008152600401610cf390612d38565b60405180910390fd5b610d078a8a8a6111b9565b50505050505050505050565b6000600160008473ffffffffffffffffffffffffffffffffffffffff1673ffffffffffffffffffffffffffffffffffffffff16815260200190815260200160002060008373ffffffffffffffffffffffffffffffffffffffff1673ffffffffffffffffffffffffffffffffffffffff16815260200190815260200160002054905092915050565b610da26122b7565b600860008473ffffffffffffffffffffffffffffffffffffffff1673ffffffffffffffffffffffffffffffffffffffff1681526020019081526020016000208263ffffffff1681548110610df957610df8613171565b5b906000526020600020016040518060400160405290816000820160009054906101000a900463ffffffff1663ffffffff1663ffffffff1681526020016000820160049054906101000a90047bffffffffffffffffffffffffffffffffffffffffffffffffffffffff167bffffffffffffffffffffffffffffffffffffffffffffffffffffffff167bffffffffffffffffffffffffffffffffffffffffffffffffffffffff1681525050905092915050565b610eb48282610f37565b610ebc611a82565b7bffffffffffffffffffffffffffffffffffffffffffffffffffffffff16610ee26105af565b1115610f23576040517f08c379a0000000000000000000000000000000000000000000000000000000008152600401610f1a90612d58565b60405180910390fd5b610f31600961109783611aa6565b50505050565b600073ffffffffffffffffffffffffffffffffffffffff168273ffffffffffffffffffffffffffffffffffffffff161415610fa7576040517f08c379a0000000000000000000000000000000000000000000000000000000008152600401610f9e90612e18565b60405180910390fd5b610fb360008383611d1e565b8060026000828254610fc59190612ef4565b92505081905550806000808473ffffffffffffffffffffffffffffffffffffffff1673ffffffffffffffffffffffffffffffffffffffff168152602001908152602001600020600082825461101a9190612ef4565b925050819055508173ffffffffffffffffffffffffffffffffffffffff16600073ffffffffffffffffffffffffffffffffffffffff167fddf252ad1be2c89b69c2b068fc378daa952ba7f163c4a11628f55a4df523b3ef8360405161107f9190612e53565b60405180910390a361109360008383611d23565b5050565b600081836110a59190612ef4565b905092915050565b60007bffffffffffffffffffffffffffffffffffffffffffffffffffffffff8016821115611110576040517f08c379a000000000000000000000000000000000000000000000000000000000815260040161110790612d78565b60405180910390fd5b819050919050565b600063ffffffff8016821115611163576040517f08c379a000000000000000000000000000000000000000000000000000000000815260040161115a90612db8565b60405180910390fd5b819050919050565b611176838383611196565b611191611182846106cb565b61118b846106cb565b83611d33565b505050565b505050565b600081836111a99190612f7b565b905092915050565b600033905090565b600073ffffffffffffffffffffffffffffffffffffffff168373ffffffffffffffffffffffffffffffffffffffff161415611229576040517f08c379a000000000000000000000000000000000000000000000000000000000815260040161122090612dd8565b60405180910390fd5b600073ffffffffffffffffffffffffffffffffffffffff168273ffffffffffffffffffffffffffffffffffffffff161415611299576040517f08c379a000000000000000000000000000000000000000000000000000000000815260040161129090612c78565b60405180910390fd5b80600160008573ffffffffffffffffffffffffffffffffffffffff1673ffffffffffffffffffffffffffffffffffffffff16815260200190815260200160002060008473ffffffffffffffffffffffffffffffffffffffff1673ffffffffffffffffffffffffffffffffffffffff168152602001908152602001600020819055508173ffffffffffffffffffffffffffffffffffffffff168373ffffffffffffffffffffffffffffffffffffffff167f8c5be1e5ebec7d5bd14f71427d1e84f3dd0314c0f7b2291e5b200ac8c7c3b925836040516113779190612e53565b60405180910390a3505050565b60006113908484610d13565b90507fffffffffffffffffffffffffffffffffffffffffffffffffffffffffffffffff811461140a57818110156113fc576040517f08c379a00000000000000000000000000000000000000000000000000000000081526004016113f390612c98565b60405180910390fd5b61140984848484036111b9565b5b50505050565b600073ffffffffffffffffffffffffffffffffffffffff168373ffffffffffffffffffffffffffffffffffffffff161415611480576040517f08c379a000000000000000000000000000000000000000000000000000000000815260040161147790612d98565b60405180910390fd5b600073ffffffffffffffffffffffffffffffffffffffff168273ffffffffffffffffffffffffffffffffffffffff1614156114f0576040517f08c379a00000000000000000000000000000000000000000000000000000000081526004016114e790612bd8565b60405180910390fd5b6114fb838383611d1e565b60008060008573ffffffffffffffffffffffffffffffffffffffff1673ffffffffffffffffffffffffffffffffffffffff16815260200190815260200160002054905081811015611581576040517f08c379a000000000000000000000000000000000000000000000000000000000815260040161157890612cd8565b60405180910390fd5b8181036000808673ffffffffffffffffffffffffffffffffffffffff1673ffffffffffffffffffffffffffffffffffffffff16815260200190815260200160002081905550816000808573ffffffffffffffffffffffffffffffffffffffff1673ffffffffffffffffffffffffffffffffffffffff16815260200190815260200160002060008282546116149190612ef4565b925050819055508273ffffffffffffffffffffffffffffffffffffffff168473ffffffffffffffffffffffffffffffffffffffff167fddf252ad1be2c89b69c2b068fc378daa952ba7f163c4a11628f55a4df523b3ef846040516116789190612e53565b60405180910390a361168b848484611d23565b50505050565b60007f000000000000000000000000000000000000000000000000000000000000000073ffffffffffffffffffffffffffffffffffffffff163073ffffffffffffffffffffffffffffffffffffffff1614801561170d57507f000000000000000000000000000000000000000000000000000000000000000046145b1561173a577f000000000000000000000000000000000000000000000000000000000000000090506117a8565b6117a57f00000000000000000000000000000000000000000000000000000000000000007f00000000000000000000000000000000000000000000000000000000000000007f0000000000000000000000000000000000000000000000000000000000000000611f2c565b90505b90565b6000808380549050905060005b8181101561182a5760006117cc8284611f66565b9050848682815481106117e2576117e1613171565b5b9060005260206000200160000160009054906101000a900463ffffffff1663ffffffff16111561181457809250611824565b6001816118219190612ef4565b91505b506117b8565b6000821461188c57846001836118409190612f7b565b8154811061185157611850613171565b5b9060005260206000200160000160049054906101000a90047bffffffffffffffffffffffffffffffffffffffffffffffffffffffff1661188f565b60005b7bffffffffffffffffffffffffffffffffffffffffffffffffffffffff169250505092915050565b60006118c2836106cb565b905060006118cf846107a2565b905082600760008673ffffffffffffffffffffffffffffffffffffffff1673ffffffffffffffffffffffffffffffffffffffff16815260200190815260200160002060006101000a81548173ffffffffffffffffffffffffffffffffffffffff021916908373ffffffffffffffffffffffffffffffffffffffff1602179055508273ffffffffffffffffffffffffffffffffffffffff168273ffffffffffffffffffffffffffffffffffffffff168573ffffffffffffffffffffffffffffffffffffffff167f3134e8a2e6d97e929a7e54011ea5485d7d196dd5f0ba4d4ef95803e8e3fc257f60405160405180910390a46119cb828483611d33565b50505050565b600081600001549050919050565b60006119f26119ec611691565b83611f8c565b9050919050565b6000806000611a0a87878787611fbf565b91509150611a17816120cc565b8192505050949350505050565b600080600560008473ffffffffffffffffffffffffffffffffffffffff1673ffffffffffffffffffffffffffffffffffffffff1681526020019081526020016000209050611a71816119d1565b9150611a7c816122a1565b50919050565b60007bffffffffffffffffffffffffffffffffffffffffffffffffffffffff905090565b60008060008580549050905060008114611b145785600182611ac89190612f7b565b81548110611ad957611ad8613171565b5b9060005260206000200160000160049054906101000a90047bffffffffffffffffffffffffffffffffffffffffffffffffffffffff16611b17565b60005b7bffffffffffffffffffffffffffffffffffffffffffffffffffffffff169250611b4583858763ffffffff16565b9150600081118015611b9857504386600183611b619190612f7b565b81548110611b7257611b71613171565b5b9060005260206000200160000160009054906101000a900463ffffffff1663ffffffff16145b15611c2557611ba6826110ad565b86600183611bb49190612f7b565b81548110611bc557611bc4613171565b5b9060005260206000200160000160046101000a8154817bffffffffffffffffffffffffffffffffffffffffffffffffffffffff02191690837bffffffffffffffffffffffffffffffffffffffffffffffffffffffff160217905550611d15565b856040518060400160405280611c3a43611118565b63ffffffff168152602001611c4e856110ad565b7bffffffffffffffffffffffffffffffffffffffffffffffffffffffff168152509080600181540180825580915050600190039060005260206000200160009091909190915060008201518160000160006101000a81548163ffffffff021916908363ffffffff16021790555060208201518160000160046101000a8154817bffffffffffffffffffffffffffffffffffffffffffffffffffffffff02191690837bffffffffffffffffffffffffffffffffffffffffffffffffffffffff16021790555050505b50935093915050565b505050565b611d2e83838361116b565b505050565b8173ffffffffffffffffffffffffffffffffffffffff168373ffffffffffffffffffffffffffffffffffffffff1614158015611d6f5750600081115b15611f2757600073ffffffffffffffffffffffffffffffffffffffff168373ffffffffffffffffffffffffffffffffffffffff1614611e4d57600080611df6600860008773ffffffffffffffffffffffffffffffffffffffff1673ffffffffffffffffffffffffffffffffffffffff16815260200190815260200160002061119b85611aa6565b915091508473ffffffffffffffffffffffffffffffffffffffff167fdec2bacdd2f05b59de34da9b523dff8be42e5e38e818c82fdb0bae774387a7248383604051611e42929190612e6e565b60405180910390a250505b600073ffffffffffffffffffffffffffffffffffffffff168273ffffffffffffffffffffffffffffffffffffffff1614611f2657600080611ecf600860008673ffffffffffffffffffffffffffffffffffffffff1673ffffffffffffffffffffffffffffffffffffffff16815260200190815260200160002061109785611aa6565b915091508373ffffffffffffffffffffffffffffffffffffffff167fdec2bacdd2f05b59de34da9b523dff8be42e5e38e818c82fdb0bae774387a7248383604051611f1b929190612e6e565b60405180910390a250505b5b505050565b60008383834630604051602001611f47959493929190612afe565b6040516020818303038152906040528051906020012090509392505050565b60006002828418611f779190612f4a565b828416611f849190612ef4565b905092915050565b60008282604051602001611fa19291906129d0565b60405160208183030381529060405280519060200120905092915050565b6000807f7fffffffffffffffffffffffffffffff5d576e7357a4501ddfe92f46681b20a08360001c1115611ffa5760006003915091506120c3565b601b8560ff16141580156120125750601c8560ff1614155b156120245760006004915091506120c3565b6000600187878787604051600081526020016040526040516120499493929190612b51565b6020604051602081039080840390855afa15801561206b573d6000803e3d6000fd5b505050602060405103519050600073ffffffffffffffffffffffffffffffffffffffff168173ffffffffffffffffffffffffffffffffffffffff1614156120ba576000600192509250506120c3565b80600092509250505b94509492505050565b600060048111156120e0576120df613113565b5b8160048111156120f3576120f2613113565b5b14156120fe5761229e565b6001600481111561211257612111613113565b5b81600481111561212557612124613113565b5b1415612166576040517f08c379a000000000000000000000000000000000000000000000000000000000815260040161215d90612bb8565b60405180910390fd5b6002600481111561217a57612179613113565b5b81600481111561218d5761218c613113565b5b14156121ce576040517f08c379a00000000000000000000000000000000000000000000000000000000081526004016121c590612c38565b60405180910390fd5b600360048111156121e2576121e1613113565b5b8160048111156121f5576121f4613113565b5b1415612236576040517f08c379a000000000000000000000000000000000000000000000000000000000815260040161222d90612cf8565b60405180910390fd5b60048081111561224957612248613113565b5b81600481111561225c5761225b613113565b5b141561229d576040517f08c379a000000000000000000000000000000000000000000000000000000000815260040161229490612d18565b60405180910390fd5b5b50565b6001816000016000828254019250508190555050565b6040518060400160405280600063ffffffff16815260200160007bffffffffffffffffffffffffffffffffffffffffffffffffffffffff1681525090565b600081359050612304816136b5565b92915050565b600081359050612319816136cc565b92915050565b60008135905061232e816136e3565b92915050565b600081359050612343816136fa565b92915050565b60008135905061235881613711565b92915050565b600060208284031215612374576123736131a0565b5b6000612382848285016122f5565b91505092915050565b600080604083850312156123a2576123a16131a0565b5b60006123b0858286016122f5565b92505060206123c1858286016122f5565b9150509250929050565b6000806000606084860312156123e4576123e36131a0565b5b60006123f2868287016122f5565b9350506020612403868287016122f5565b92505060406124148682870161231f565b9150509250925092565b600080600080600080600060e0888a03121561243d5761243c6131a0565b5b600061244b8a828b016122f5565b975050602061245c8a828b016122f5565b965050604061246d8a828b0161231f565b955050606061247e8a828b0161231f565b945050608061248f8a828b01612349565b93505060a06124a08a828b0161230a565b92505060c06124b18a828b0161230a565b91505092959891949750929550565b600080604083850312156124d7576124d66131a0565b5b60006124e5858286016122f5565b92505060206124f68582860161231f565b9150509250929050565b60008060008060008060c0878903121561251d5761251c6131a0565b5b600061252b89828a016122f5565b965050602061253c89828a0161231f565b955050604061254d89828a0161231f565b945050606061255e89828a01612349565b935050608061256f89828a0161230a565b92505060a061258089828a0161230a565b9150509295509295509295565b600080604083850312156125a4576125a36131a0565b5b60006125b2858286016122f5565b92505060206125c385828601612334565b9150509250929050565b6000602082840312156125e3576125e26131a0565b5b60006125f18482850161231f565b91505092915050565b61260381612faf565b82525050565b61261281612fc1565b82525050565b61262181612fcd565b82525050565b61263861263382612fcd565b6130ab565b82525050565b600061264982612ecd565b6126538185612ed8565b9350612663818560208601613046565b61266c816131a5565b840191505092915050565b6000612684601883612ed8565b915061268f826131b6565b602082019050919050565b60006126a7602383612ed8565b91506126b2826131df565b604082019050919050565b60006126ca601f83612ed8565b91506126d58261322e565b602082019050919050565b60006126ed601d83612ed8565b91506126f882613257565b602082019050919050565b6000612710601f83612ed8565b915061271b82613280565b602082019050919050565b6000612733601983612ed8565b915061273e826132a9565b602082019050919050565b6000612756602283612ed8565b9150612761826132d2565b604082019050919050565b6000612779600283612ee9565b915061278482613321565b600282019050919050565b600061279c601d83612ed8565b91506127a78261334a565b602082019050919050565b60006127bf601d83612ed8565b91506127ca82613373565b602082019050919050565b60006127e2602683612ed8565b91506127ed8261339c565b604082019050919050565b6000612805602283612ed8565b9150612810826133eb565b604082019050919050565b6000612828602283612ed8565b91506128338261343a565b604082019050919050565b600061284b601e83612ed8565b915061285682613489565b602082019050919050565b600061286e603083612ed8565b9150612879826134b2565b604082019050919050565b6000612891602783612ed8565b915061289c82613501565b604082019050919050565b60006128b4602583612ed8565b91506128bf82613550565b604082019050919050565b60006128d7602683612ed8565b91506128e28261359f565b604082019050919050565b60006128fa602483612ed8565b9150612905826135ee565b604082019050919050565b600061291d602583612ed8565b91506129288261363d565b604082019050919050565b6000612940601f83612ed8565b915061294b8261368c565b602082019050919050565b60408201600082015161296c60008501826129a3565b50602082015161297f6020850182612985565b50505050565b61298e81612ff7565b82525050565b61299d8161301f565b82525050565b6129ac81613029565b82525050565b6129bb81613029565b82525050565b6129ca81613039565b82525050565b60006129db8261276c565b91506129e78285612627565b6020820191506129f78284612627565b6020820191508190509392505050565b6000602082019050612a1c60008301846125fa565b92915050565b6000602082019050612a376000830184612609565b92915050565b6000602082019050612a526000830184612618565b92915050565b600060c082019050612a6d6000830189612618565b612a7a60208301886125fa565b612a8760408301876125fa565b612a946060830186612994565b612aa16080830185612994565b612aae60a0830184612994565b979650505050505050565b6000608082019050612ace6000830187612618565b612adb60208301866125fa565b612ae86040830185612994565b612af56060830184612994565b95945050505050565b600060a082019050612b136000830188612618565b612b206020830187612618565b612b2d6040830186612618565b612b3a6060830185612994565b612b4760808301846125fa565b9695505050505050565b6000608082019050612b666000830187612618565b612b7360208301866129c1565b612b806040830185612618565b612b8d6060830184612618565b95945050505050565b60006020820190508181036000830152612bb0818461263e565b905092915050565b60006020820190508181036000830152612bd181612677565b9050919050565b60006020820190508181036000830152612bf18161269a565b9050919050565b60006020820190508181036000830152612c11816126bd565b9050919050565b60006020820190508181036000830152612c31816126e0565b9050919050565b60006020820190508181036000830152612c5181612703565b9050919050565b60006020820190508181036000830152612c7181612726565b9050919050565b60006020820190508181036000830152612c9181612749565b9050919050565b60006020820190508181036000830152612cb18161278f565b9050919050565b60006020820190508181036000830152612cd1816127b2565b9050919050565b60006020820190508181036000830152612cf1816127d5565b9050919050565b60006020820190508181036000830152612d11816127f8565b9050919050565b60006020820190508181036000830152612d318161281b565b9050919050565b60006020820190508181036000830152612d518161283e565b9050919050565b60006020820190508181036000830152612d7181612861565b9050919050565b60006020820190508181036000830152612d9181612884565b9050919050565b60006020820190508181036000830152612db1816128a7565b9050919050565b60006020820190508181036000830152612dd1816128ca565b9050919050565b60006020820190508181036000830152612df1816128ed565b9050919050565b60006020820190508181036000830152612e1181612910565b9050919050565b60006020820190508181036000830152612e3181612933565b9050919050565b6000604082019050612e4d6000830184612956565b92915050565b6000602082019050612e686000830184612994565b92915050565b6000604082019050612e836000830185612994565b612e906020830184612994565b9392505050565b6000602082019050612eac60008301846129b2565b92915050565b6000602082019050612ec760008301846129c1565b92915050565b600081519050919050565b600082825260208201905092915050565b600081905092915050565b6000612eff8261301f565b9150612f0a8361301f565b9250827fffffffffffffffffffffffffffffffffffffffffffffffffffffffffffffffff03821115612f3f57612f3e6130b5565b5b828201905092915050565b6000612f558261301f565b9150612f608361301f565b925082612f7057612f6f6130e4565b5b828204905092915050565b6000612f868261301f565b9150612f918361301f565b925082821015612fa457612fa36130b5565b5b828203905092915050565b6000612fba82612fd7565b9050919050565b60008115159050919050565b6000819050919050565b600073ffffffffffffffffffffffffffffffffffffffff82169050919050565b60007bffffffffffffffffffffffffffffffffffffffffffffffffffffffff82169050919050565b6000819050919050565b600063ffffffff82169050919050565b600060ff82169050919050565b60005b83811015613064578082015181840152602081019050613049565b83811115613073576000848401525b50505050565b6000600282049050600182168061309157607f821691505b602082108114156130a5576130a4613142565b5b50919050565b6000819050919050565b7f4e487b7100000000000000000000000000000000000000000000000000000000600052601160045260246000fd5b7f4e487b7100000000000000000000000000000000000000000000000000000000600052601260045260246000fd5b7f4e487b7100000000000000000000000000000000000000000000000000000000600052602160045260246000fd5b7f4e487b7100000000000000000000000000000000000000000000000000000000600052602260045260246000fd5b7f4e487b7100000000000000000000000000000000000000000000000000000000600052603260045260246000fd5b600080fd5b6000601f19601f8301169050919050565b7f45434453413a20696e76616c6964207369676e61747572650000000000000000600082015250565b7f45524332303a207472616e7366657220746f20746865207a65726f206164647260008201527f6573730000000000000000000000000000000000000000000000000000000000602082015250565b7f4552433230566f7465733a20626c6f636b206e6f7420796574206d696e656400600082015250565b7f4552433230566f7465733a207369676e61747572652065787069726564000000600082015250565b7f45434453413a20696e76616c6964207369676e6174757265206c656e67746800600082015250565b7f4552433230566f7465733a20696e76616c6964206e6f6e636500000000000000600082015250565b7f45524332303a20617070726f766520746f20746865207a65726f20616464726560008201527f7373000000000000000000000000000000000000000000000000000000000000602082015250565b7f1901000000000000000000000000000000000000000000000000000000000000600082015250565b7f45524332303a20696e73756666696369656e7420616c6c6f77616e6365000000600082015250565b7f45524332305065726d69743a206578706972656420646561646c696e65000000600082015250565b7f45524332303a207472616e7366657220616d6f756e742065786365656473206260008201527f616c616e63650000000000000000000000000000000000000000000000000000602082015250565b7f45434453413a20696e76616c6964207369676e6174757265202773272076616c60008201527f7565000000000000000000000000000000000000000000000000000000000000602082015250565b7f45434453413a20696e76616c6964207369676e6174757265202776272076616c60008201527f7565000000000000000000000000000000000000000000000000000000000000602082015250565b7f45524332305065726d69743a20696e76616c6964207369676e61747572650000600082015250565b7f4552433230566f7465733a20746f74616c20737570706c79207269736b73206f60008201527f766572666c6f77696e6720766f74657300000000000000000000000000000000602082015250565b7f53616665436173743a2076616c756520646f65736e27742066697420696e203260008201527f3234206269747300000000000000000000000000000000000000000000000000602082015250565b7f45524332303a207472616e736665722066726f6d20746865207a65726f20616460008201527f6472657373000000000000000000000000000000000000000000000000000000602082015250565b7f53616665436173743a2076616c756520646f65736e27742066697420696e203360008201527f3220626974730000000000000000000000000000000000000000000000000000602082015250565b7f45524332303a20617070726f76652066726f6d20746865207a65726f2061646460008201527f7265737300000000000000000000000000000000000000000000000000000000602082015250565b7f45524332303a2064656372656173656420616c6c6f77616e63652062656c6f7760008201527f207a65726f000000000000000000000000000000000000000000000000000000602082015250565b7f45524332303a206d696e7420746f20746865207a65726f206164647265737300600082015250565b6136be81612faf565b81146136c957600080fd5b50565b6136d581612fcd565b81146136e057600080fd5b50565b6136ec8161301f565b81146136f757600080fd5b50565b61370381613029565b811461370e57600080fd5b50565b61371a81613039565b811461372557600080fd5b5056fea2646970667358221220e138a27e6ff9e089986c38cefc814856e45a968a663cacc37a7a9f890fb1c88d64736f6c63430008060033",
  "linkReferences": {},
  "deployedLinkReferences": {}
}